{
  "_format": "hh-sol-artifact-1",
  "contractName": "ComplaintHash",
  "sourceName": "contracts/complaintHash.sol",
  "abi": [
    {
      "inputs": [],
      "stateMutability": "nonpayable",
      "type": "constructor"
    },
    {
      "anonymous": false,
      "inputs": [
        {
          "indexed": false,
          "internalType": "string",
          "name": "complaintId",
          "type": "string"
        },
        {
          "indexed": false,
          "internalType": "bytes32",
          "name": "hash",
          "type": "bytes32"
        },
        {
          "indexed": false,
          "internalType": "address",
          "name": "reporter",
          "type": "address"
        }
      ],
      "name": "HashStored",
      "type": "event"
    },
    {
      "anonymous": false,
      "inputs": [
        {
          "indexed": false,
          "internalType": "string",
          "name": "complaintId",
          "type": "string"
        },
        {
          "indexed": false,
          "internalType": "string",
          "name": "status",
          "type": "string"
        }
      ],
      "name": "StatusUpdated",
      "type": "event"
    },
    {
      "inputs": [],
      "name": "admin",
      "outputs": [
        {
          "internalType": "address",
          "name": "",
          "type": "address"
        }
      ],
      "stateMutability": "view",
      "type": "function"
    },
    {
      "inputs": [
        {
          "internalType": "string",
          "name": "complaintId",
          "type": "string"
        }
      ],
      "name": "getComplaint",
      "outputs": [
        {
          "internalType": "bytes32",
          "name": "hash",
          "type": "bytes32"
        },
        {
          "internalType": "address",
          "name": "reporter",
          "type": "address"
        },
        {
          "internalType": "uint256",
          "name": "timestamp",
          "type": "uint256"
        },
        {
          "internalType": "string",
          "name": "status",
          "type": "string"
        }
      ],
      "stateMutability": "view",
      "type": "function"
    },
    {
      "inputs": [
        {
          "internalType": "string",
          "name": "complaintId",
          "type": "string"
        },
        {
          "internalType": "bytes32",
          "name": "hash",
          "type": "bytes32"
        }
      ],
      "name": "storeHash",
      "outputs": [],
      "stateMutability": "nonpayable",
      "type": "function"
    },
    {
      "inputs": [
        {
          "internalType": "string",
          "name": "complaintId",
          "type": "string"
        },
        {
          "internalType": "string",
          "name": "status",
          "type": "string"
        }
      ],
      "name": "updateStatus",
      "outputs": [],
      "stateMutability": "nonpayable",
      "type": "function"
    },
    {
      "inputs": [
        {
          "internalType": "string",
          "name": "complaintId",
          "type": "string"
        },
        {
          "internalType": "bytes32",
          "name": "hash",
          "type": "bytes32"
        }
      ],
      "name": "verifyHash",
      "outputs": [
        {
          "internalType": "bool",
          "name": "",
          "type": "bool"
        }
      ],
      "stateMutability": "view",
      "type": "function"
    }
  ],
  "bytecode": "0x608060405234801561001057600080fd5b50336000806101000a81548173ffffffffffffffffffffffffffffffffffffffff021916908373ffffffffffffffffffffffffffffffffffffffff160217905550611067806100606000396000f3fe608060405234801561001057600080fd5b50600436106100575760003560e01c806305fd4b811461005c57806330c6caa41461008f578063347047cc146100ab578063b89207e0146100c7578063f851a440146100f7575b600080fd5b61007660048036038101906100719190610849565b610115565b6040516100869493929190610984565b60405180910390f35b6100a960048036038101906100a491906109fc565b6102f2565b005b6100c560048036038101906100c09190610a58565b6104c7565b005b6100e160048036038101906100dc91906109fc565b61062f565b6040516100ee9190610aeb565b60405180910390f35b6100ff6106cb565b60405161010c9190610b06565b60405180910390f35b6000806000606060018560405161012c9190610b5d565b908152602001604051809103902060040160009054906101000a900460ff1661018a576040517f08c379a000000000000000000000000000000000000000000000000000000000815260040161018190610bc0565b60405180910390fd5b600060018660405161019c9190610b5d565b90815260200160405180910390206040518060a0016040529081600082015481526020016001820160009054906101000a900473ffffffffffffffffffffffffffffffffffffffff1673ffffffffffffffffffffffffffffffffffffffff1673ffffffffffffffffffffffffffffffffffffffff1681526020016002820154815260200160038201805461022f90610c0f565b80601f016020809104026020016040519081016040528092919081815260200182805461025b90610c0f565b80156102a85780601f1061027d576101008083540402835291602001916102a8565b820191906000526020600020905b81548152906001019060200180831161028b57829003601f168201915b505050505081526020016004820160009054906101000a900460ff161515151581525050905080600001518160200151826040015183606001519450945094509450509193509193565b6001826040516103029190610b5d565b908152602001604051809103902060040160009054906101000a900460ff1615610361576040517f08c379a000000000000000000000000000000000000000000000000000000000815260040161035890610cb2565b60405180910390fd5b6040518060a001604052808281526020013373ffffffffffffffffffffffffffffffffffffffff1681526020014281526020016040518060400160405280600781526020017f50656e64696e67000000000000000000000000000000000000000000000000008152508152602001600115158152506001836040516103e69190610b5d565b90815260200160405180910390206000820151816000015560208201518160010160006101000a81548173ffffffffffffffffffffffffffffffffffffffff021916908373ffffffffffffffffffffffffffffffffffffffff1602179055506040820151816002015560608201518160030190816104649190610e7e565b5060808201518160040160006101000a81548160ff0219169083151502179055509050507fbcb507bf8eea82d0867879cb429f8b7e2eeaa30488039dc2c339f2e14091aa158282336040516104bb93929190610f50565b60405180910390a15050565b60008054906101000a900473ffffffffffffffffffffffffffffffffffffffff1673ffffffffffffffffffffffffffffffffffffffff163373ffffffffffffffffffffffffffffffffffffffff1614610555576040517f08c379a000000000000000000000000000000000000000000000000000000000815260040161054c90610fda565b60405180910390fd5b6001826040516105659190610b5d565b908152602001604051809103902060040160009054906101000a900460ff166105c3576040517f08c379a00000000000000000000000000000000000000000000000000000000081526004016105ba90610bc0565b60405180910390fd5b806001836040516105d49190610b5d565b908152602001604051809103902060030190816105f19190610e7e565b507fb75b1fec1bc9156569ae9f72fb29c6e6727b297e191d358465fff4c09d8f7d268282604051610623929190610ffa565b60405180910390a15050565b60006001836040516106419190610b5d565b908152602001604051809103902060040160009054906101000a900460ff1661069f576040517f08c379a000000000000000000000000000000000000000000000000000000000815260040161069690610bc0565b60405180910390fd5b816001846040516106b09190610b5d565b90815260200160405180910390206000015414905092915050565b60008054906101000a900473ffffffffffffffffffffffffffffffffffffffff1681565b6000604051905090565b600080fd5b600080fd5b600080fd5b600080fd5b6000601f19601f8301169050919050565b7f4e487b7100000000000000000000000000000000000000000000000000000000600052604160045260246000fd5b6107568261070d565b810181811067ffffffffffffffff821117156107755761077461071e565b5b80604052505050565b60006107886106ef565b9050610794828261074d565b919050565b600067ffffffffffffffff8211156107b4576107b361071e565b5b6107bd8261070d565b9050602081019050919050565b82818337600083830152505050565b60006107ec6107e784610799565b61077e565b90508281526020810184848401111561080857610807610708565b5b6108138482856107ca565b509392505050565b600082601f8301126108305761082f610703565b5b81356108408482602086016107d9565b91505092915050565b60006020828403121561085f5761085e6106f9565b5b600082013567ffffffffffffffff81111561087d5761087c6106fe565b5b6108898482850161081b565b91505092915050565b6000819050919050565b6108a581610892565b82525050565b600073ffffffffffffffffffffffffffffffffffffffff82169050919050565b60006108d6826108ab565b9050919050565b6108e6816108cb565b82525050565b6000819050919050565b6108ff816108ec565b82525050565b600081519050919050565b600082825260208201905092915050565b60005b8381101561093f578082015181840152602081019050610924565b60008484015250505050565b600061095682610905565b6109608185610910565b9350610970818560208601610921565b6109798161070d565b840191505092915050565b6000608082019050610999600083018761089c565b6109a660208301866108dd565b6109b360408301856108f6565b81810360608301526109c5818461094b565b905095945050505050565b6109d981610892565b81146109e457600080fd5b50565b6000813590506109f6816109d0565b92915050565b60008060408385031215610a1357610a126106f9565b5b600083013567ffffffffffffffff811115610a3157610a306106fe565b5b610a3d8582860161081b565b9250506020610a4e858286016109e7565b9150509250929050565b60008060408385031215610a6f57610a6e6106f9565b5b600083013567ffffffffffffffff811115610a8d57610a8c6106fe565b5b610a998582860161081b565b925050602083013567ffffffffffffffff811115610aba57610ab96106fe565b5b610ac68582860161081b565b9150509250929050565b60008115159050919050565b610ae581610ad0565b82525050565b6000602082019050610b006000830184610adc565b92915050565b6000602082019050610b1b60008301846108dd565b92915050565b600081905092915050565b6000610b3782610905565b610b418185610b21565b9350610b51818560208601610921565b80840191505092915050565b6000610b698284610b2c565b915081905092915050565b7f436f6d706c61696e7420646f6573206e6f742065786973740000000000000000600082015250565b6000610baa601883610910565b9150610bb582610b74565b602082019050919050565b60006020820190508181036000830152610bd981610b9d565b9050919050565b7f4e487b7100000000000000000000000000000000000000000000000000000000600052602260045260246000fd5b60006002820490506001821680610c2757607f821691505b602082108103610c3a57610c39610be0565b5b50919050565b7f4861736820616c72656164792073746f72656420666f72207468697320636f6d60008201527f706c61696e740000000000000000000000000000000000000000000000000000602082015250565b6000610c9c602683610910565b9150610ca782610c40565b604082019050919050565b60006020820190508181036000830152610ccb81610c8f565b9050919050565b60008190508160005260206000209050919050565b60006020601f8301049050919050565b600082821b905092915050565b600060088302610d347fffffffffffffffffffffffffffffffffffffffffffffffffffffffffffffffff82610cf7565b610d3e8683610cf7565b95508019841693508086168417925050509392505050565b6000819050919050565b6000610d7b610d76610d71846108ec565b610d56565b6108ec565b9050919050565b6000819050919050565b610d9583610d60565b610da9610da182610d82565b848454610d04565b825550505050565b600090565b610dbe610db1565b610dc9818484610d8c565b505050565b5b81811015610ded57610de2600082610db6565b600181019050610dcf565b5050565b601f821115610e3257610e0381610cd2565b610e0c84610ce7565b81016020851015610e1b578190505b610e2f610e2785610ce7565b830182610dce565b50505b505050565b600082821c905092915050565b6000610e5560001984600802610e37565b1980831691505092915050565b6000610e6e8383610e44565b9150826002028217905092915050565b610e8782610905565b67ffffffffffffffff811115610ea057610e9f61071e565b5b610eaa8254610c0f565b610eb5828285610df1565b600060209050601f831160018114610ee85760008415610ed6578287015190505b610ee08582610e62565b865550610f48565b601f198416610ef686610cd2565b60005b82811015610f1e57848901518255600182019150602085019450602081019050610ef9565b86831015610f3b5784890151610f37601f891682610e44565b8355505b6001600288020188555050505b505050505050565b60006060820190508181036000830152610f6a818661094b565b9050610f79602083018561089c565b610f8660408301846108dd565b949350505050565b7f4f6e6c792061646d696e2063616e2063616c6c20746869730000000000000000600082015250565b6000610fc4601883610910565b9150610fcf82610f8e565b602082019050919050565b60006020820190508181036000830152610ff381610fb7565b9050919050565b60006040820190508181036000830152611014818561094b565b90508181036020830152611028818461094b565b9050939250505056fea26469706673582212202537cdbd56d9147f60e0320c4315b663e5d8c68755f6e431028721898ff4737964736f6c63430008140033",
  "linkReferences": {},
  "deployedLinkReferences": {}
}